:100000000C94DE000C94D1020C94E7020C94BE0216
:100010000C94FB000C94FB000C94FB000C94FB0074
:100020000C94FB000C94FB000C94F6020C94FB0067
:100030000C94FB000C94FB000C94FB000C94FB0054
:100040000C94FB000C94FB000C94FB000C94FB0044
:100050000C94FB00670380039903B203CA03CA032D
:10006000CA03CA03CA03CA03CA03CA03CA03CA0328
:10007000CA03CA03CA03CA03CA03CA03CA03CA0318
:10008000CA03CA03CA03CA03CA03CA03CA03CA0308
:10009000CA03CA03670380039903B203D703F003BB
:1000A000090422043A043A043A043A043A043A04A9
:1000B0003A043A043A043A043A043A043A043A0450
:1000C0003A043A043A043A043A043A043A043A0440
:1000D0003A043A043A043A043A043A04D703F003DF
:1000E0000904220447045B046F0483049704970403
:1000F0009704970497049704970497049704970428
:100100009704970497049704970497049704970417
:100110009704970497049704970497049704970407
:100120009704970447045B046F048304A404A604A3
:10013000A804AA04AB04AB04AB04AB04AB04AB044B
:10014000AB04AB04AB04AB04AB04AB04AB04AB0437
:10015000AB04AB04AB04AB04AB04AB04AB04AB0427
:10016000AB04AB04AB04AB04AB04AB04A404A60423
:10017000A804AA04B704B904BB04BD04BE04BE04A9
:10018000BE04BE04BE04BE04BE04BE04BE04BE045F
:10019000BE04BE04BE04BE04BE04BE04BE04BE044F
:1001A000BE04BE04BE04BE04BE04BE04BE04BE043F
:1001B000BE04BE04B704B904BB04BD0411241FBEB1
:1001C000CFE5D8E0DEBFCDBF10E0A0E6B0E0EEE8BE
:1001D000F9E002C005900D92AC36B107D9F720E0E6
:1001E000ACE6B0E001C01D92A837B207E1F70E946B
:1001F000FD000C94C5040C94000078948BB78062C9
:100200008BBF8BB780688BBF8BB780648BBF85B784
:10021000806485BF85B7816085BF85B7826085BFF3
:1002200085B7886085BF85B7846085BF0E944B0312
:1002300060E081E40E94150361E081E40E941503FF
:1002400062E081E40E94150363E081E40E941503EB
:1002500065E082E60E94150365E082E60E941903CC
:100260008093700060E082E40E94110383E40E94A6
:10027000220341E065E084E40E945B0341E064E026
:1002800084E40E945B0340E063E084E40E945B033B
:1002900040E062E084E40E945B0341E061E084E4CA
:1002A0000E945B0341E060E084E40E945B0360E045
:1002B00081E60E94190380916000823081F18330D1
:1002C000A1F1813009F045C080917600813019F5A7
:1002D0000BC041E066E084E60E94CB0360E083E669
:1002E0000E942603CF5F01C0C0E0C73090F38FE1CA
:1002F0009EE40197F1F700C0000010926F00109289
:100300006E0010926D00109276008FE19EE40197CE
:10031000F1F700C0000082E0809360001AC0809175
:10032000740083E08093600014C08091730081307A
:1003300059F480916C008F5F80936C008FE19EE494
:100340000197F1F700C000001092730081E08093E4
:10035000600080917700823009F451C028F488232E
:1003600061F0813071F1CDC0843009F48AC008F4A5
:100370006AC0853009F4A9C0C4C040E060E081E4EF
:100380000E94CB0360E083E40E94260341E065E025
:1003900081E40E94CB0381E08093770060916F003D
:1003A0008DEC689F812D1124869586958695880F02
:1003B000982F990F990F890F681B83E40E942603D9
:1003C000A0C040E065E081E40E94CB0360E083E4EC
:1003D0000E94260341E064E081E40E94CB0382E0B6
:1003E0008093770080916F006DEC869F612D1124C2
:1003F00066956695669583E40E94260382C040E078
:1004000064E081E40E94CB0360E083E40E94260361
:1004100041E063E081E40E94CB0383E080937700B6
:1004200060916E008DEC689F812D112486958695D4
:100430008695880F982F990F990F890F681B83E471
:100440000E9426035EC040E063E081E40E94CB038B
:1004500060E083E40E94260341E062E081E40E94C0
:10046000CB0384E08093770080916E006DEC869FD3
:10047000612D112466956695669583E40E94260396
:1004800040C040E062E081E40E94CB0360E083E48E
:100490000E94260341E061E081E40E94CB0385E0F5
:1004A0008093770060916C008DEC689F812D112402
:1004B000869586958695880F982F990F990F890FA5
:1004C000681B83E40E9426031CC040E061E081E4D5
:1004D0000E94CB0360E083E40E94260341E060E0D9
:1004E00081E40E94CB031092770080916C006DEC48
:1004F000869F612D112466956695669583E40E941A
:10050000260380916D008F5F80936D00843679F5AE
:1005100080917400811105C080916F008F5F80937E
:100520006F0010926D0080916F008C3301F5809107
:100530007400811107C080916E008F5F80936E0000
:1005400010926F0080916E008C3389F4809174005A
:10055000811107C010926E0080916C008F5F8093B4
:100560006C0080916C008C3311F410926C008FEC55
:1005700097E00197F1F700C000009DCE1F920F9207
:100580000FB60F9211248F9380917500811103C0D3
:1005900081E0809376008F910F900FBE0F901F9097
:1005A00018951F920F920FB60F9211248F9380917E
:1005B0007400811104C081E08093740002C0109225
:1005C00074008F910F900FBE0F901F9018951F927F
:1005D0000F920FB60F9211248F9381E080937300D6
:1005E0008F910F900FBE0F901F9018951F920F9232
:1005F0000FB60F9211248F939F93809174008130D6
:1006000049F480917100909172000196909372006C
:10061000809371009F918F910F900FBE0F901F904C
:10062000189541E00E945B03089540E00E945B033F
:1006300008950E943B04E3ECF9E03197F1F700C024
:10064000000008956FEF0E9499040895CF93DF93FF
:10065000CDB7DEB72A970FB6F894DEBF0FBECDBF79
:100660009AE0E1E6F0E0DE01119601900D929A9594
:10067000E1F7E1E0F0E0EC0FFD1FE60FF11D608116
:100680000E94AC042A960FB6F894DEBF0FBECDBF11
:10069000DF91CF91089583B7886083BF80E58CBFD9
:1006A00083B7816083BF83B7846083BF789489B741
:1006B000826089BF089590E0FC01E154F109E432C1
:1006C000F10508F067C0E65DFF4F0C94BF044130B0
:1006D00059F42AB381E090E002C0880F991F6A950F
:1006E000E2F7822B8ABB08952AB381E090E002C032
:1006F000880F991F6A95E2F7809582238ABB089537
:10070000413059F427B381E090E002C0880F991F6F
:100710006A95E2F7822B87BB089527B381E090E0CA
:1007200002C0880F991F6A95E2F78095822387BBE4
:100730000895413059F424B381E090E002C0880F5D
:10074000991F6A95E2F7822B84BB089524B381E058
:1007500090E002C0880F991F6A95E2F78095822386
:1007600084BB0895413059F421B381E090E002C088
:10077000880F991F6A95E2F7822B81BB089521B3F8
:1007800081E090E002C0880F991F6A95E2F780959A
:10079000822381BB089590E0FC01E154F109E43229
:1007A000F10508F067C0E25BFF4F0C94BF044130D5
:1007B00059F42BB381E090E002C0880F991F6A952D
:1007C000E2F7822B8BBB08952BB381E090E002C04F
:1007D000880F991F6A95E2F7809582238BBB089555
:1007E000413059F428B381E090E002C0880F991F8E
:1007F0006A95E2F7822B88BB089528B381E090E0E8
:1008000002C0880F991F6A95E2F78095822388BB02
:100810000895413059F425B381E090E002C0880F7B
:10082000991F6A95E2F7822B85BB089525B381E075
:1008300090E002C0880F991F6A95E2F780958223A5
:1008400085BB0895413059F422B381E090E002C0A5
:10085000880F991F6A95E2F7822B82BB089522B315
:1008600081E090E002C0880F991F6A95E2F78095B9
:10087000822382BB089590E0FC01E154F109E43247
:10088000F10508F054C0EE58FF4F0C94BF0449B373
:1008900081E090E09C01062E02C0220F331F0A94D3
:1008A000E2F7842F90E08223932302C095958795E9
:1008B0006A95E2F7089546B381E090E09C01062E28
:1008C00002C0220F331F0A94E2F7842F90E08223A4
:1008D000932302C0959587956A95E2F7089543B3EF
:1008E00081E090E09C01062E02C0220F331F0A9483
:1008F000E2F7842F90E08223932302C09595879599
:100900006A95E2F7089540B381E090E09C01062EDD
:1009100002C0220F331F0A94E2F7842F90E0822353
:10092000932302C0959587956A95E2F7089580E034
:10093000089590E0FC01E154F109E432F10558F426
:10094000EA56FF4F0C94BF046ABB089567BB089535
:1009500064BB089561BB089590E0FC01E154F10986
:10096000E432F10558F4E654FF4F0C94BF046BBB1E
:10097000089568BB089565BB089562BB0895EE0FA6
:0E098000FF1F0590F491E02D0994F894FFCF2D
:0C098E0001C0F9A4B0999282F88090009A
:00000001FF
